:020000023000CC
:10E000000D948AF10D94B3F10D94B3F10D94B3F125
:10E010000D94B3F10D94B3F10D94B3F10D94B3F1EC
:10E020000D94B3F10D94B3F10D94B3F10D94B3F1DC
:10E030000D94B3F10D94B3F10D94B3F10D94B3F1CC
:10E040000D94B3F10D94B3F10D94B3F10D94B3F1BC
:10E050000D94B3F10D94B3F10D94B3F10D94B3F1AC
:10E060000D94B3F10D94B3F10D94B3F10D94B3F19C
:10E070000D94B3F10D94B3F10D94B3F10D94B3F18C
:10E080000D94B3F10D94B3F10D94B3F10D94B3F17C
:10E090000D94B3F10D94B3F10D94B3F10D94B3F16C
:10E0A0000D94B3F10D94B3F10D94B3F10D94B3F15C
:10E0B0000D94B3F10D94B3F10D94B3F10D94B3F14C
:10E0C0000D94B3F10D94B3F10D94B3F10D94B3F13C
:10E0D0000D94B3F10D94B3F10D94B3F10D94B3F12C
:10E0E0000D94B3F12A00593D506F727420626C692F
:10E0F0006E6B00563D73686F7720696E746572723F
:10E1000075707420566563746F727300523D447568
:10E110006D702052414D00513D51756974004C3D68
:10E120004C69737420492F4F20506F7274730048EC
:10E130003D48656C7000463D44756D7020464C410D
:10E14000534800453D44756D7020454550524F4D34
:10E1500000423D426C696E6B204C454400403D4599
:10E160004550524F4D2074657374003F3D435055E8
:10E1700020737461747300303D5A65726F2061645E
:10E18000647200504F5254004545206572722063FE
:10E190006E743D0052656164696E672045450057A5
:10E1A00072697474696E672045450020004D75736F
:10E1B000742062652061206C657474657200506F14
:10E1C0007274206E6F7420737570706F72746564F2
:10E1D000005768617420706F72743A006A6D702025
:10E1E00000726A6D702020006E6F20766563746F18
:10E1F00072005623202020414444522020206F707A
:10E2000020636F64652020202020696E737472750E
:10E210006374696F6E2061646472202020496E749B
:10E220006572727570740031312E322E3000322ECC
:10E23000302E30004D6179203234203230323200BD
:10E240004C6F636B20667573652020203D20004570
:10E2500078742066757365202020203D2000486971
:10E26000676820667573652020203D20004C6F771D
:10E270002066757365202020203D200043505520E6
:10E2800049442020202020203D20004743432056A1
:10E29000657273696F6E203D2000415652204C69B3
:10E2A0006243205665723D20005F5F4156525F41D8
:10E2B0005243485F5F3D20004350552054797065BC
:10E2C000202020203D2000436F6D70696C65642024
:10E2D0006F6E203D20004875683F00426F6F746C80
:10E2E0006F616465723E0041726475696E6F20658E
:10E2F00078706C6F7265722073746B353030563283
:10E30000206279204D4C530041546D656761323570
:10E310003630000011241FBECFEFD1E2DEBFCDBFEB
:10E3200001E00CBF12E0A0E0B2E0E2E3F8EF03E0AE
:10E330000BBF02C007900D92A430B107D9F722E0BD
:10E34000A4E0B2E001C01D92A231B207E1F70F9440
:10E35000E8F20D9417FC01E20EBF0FEF0DBF112480
:10E360001FBE0D94E8F20D9400F08093C6008091DA
:10E37000C00086FFFCCF8091C00080648093C00005
:10E3800008958091C00087FFFCCF8091C60008955A
:10E390009C0190E080E08217930709F40895EFEC68
:10E3A000F7E03197F1F700C000000196F4CFCF936A
:10E3B000DF93EC01C60FD11DCE01B0E0A0E0ABBFF2
:10E3C000FC018791882321F021960F94B5F1F4CFB9
:10E3D000DF91CF9108958DE00F94B5F18AE00D940F
:10E3E000B5F1CF93C82F60E083E891EE0F94D7F199
:10E3F0008C2F0F94B5F1CF910D94EBF10F94D7F1D1
:10E400000D94EBF1CF93DF93EC018991882319F000
:10E410000F94B5F1FACFDF91CF910895CF93C82F24
:10E42000982F92959F7080E3890F8A3310F087E3CD
:10E43000890F0F94B5F1CF7080E38C0F8A3310F001
:10E4400087E38C0FCF910D94B5F12F923F924F92AD
:10E450005F926F927F928F929F92AF92BF92CF9274
:10E46000DF92EF92FF920F931F93CF93DF93CDB77D
:10E47000DEB762970FB6F894DEBF0FBECDBF982E01
:10E480006A017B0180E1882E81E0C816D104E8068C
:10E49000F10418F08E2D0F940EF28D2D0F940EF2C4
:10E4A0000C2D8C2D0F940EF280E20F94B5F18DE2BD
:10E4B0000F94B5F180E20F94B5F11982FE01319607
:10E4C0005F01260137011F01005FF1E09F1609F48B
:10E4D00043C082E0981609F444C06BBEF201179164
:10E4E000812F0F940EF280E20F94B5F180EE810F30
:10E4F0008F3508F01EE2F50111935F01FFEF4F1A0F
:10E500005F0A6F0A7F0A0411E0CF80E1C80ED11CB8
:10E51000E11CF11C198AC1010F9402F20F94EBF176
:10E520008A948110B1CF62960FB6F894DEBF0FBE09
:10E53000CDBFDF91CF911F910F91FF90EF90DF90B2
:10E54000CF90BF90AF909F908F907F906F905F9093
:10E550004F903F902F900895C2010F9401FC182F07
:10E56000BFCFF2011081BCCF0F931F93CF93DF93E6
:10E57000EC018B01853691051CF4633071054CF07C
:10E58000CE0164E670E00F94B0FB80E3860F0F9439
:10E59000B5F1CB30D1051CF4023011056CF0CE0181
:10E5A00064E670E00F94B0FB6AE070E00F94B0FB9B
:10E5B00080E3860F0F94B5F1CE016AE070E00F940E
:10E5C000B0FB805DDF91CF911F910F910D94B5F15C
:10E5D000CDB7DEB7CD53D1400FB6F894DEBF0FBE36
:10E5E000CDBF01E20EBF0FEF0DBF94B7F894A89511
:10E5F00014BE80916000886180936000109260007A
:10E60000789493FF05C0E0911002F09111021995E2
:10E61000279A2F9A8091C00082608093C00080E189
:10E620008093C40088E18093C100000010E000E006
:10E63000C12CD12C7601F7EC8F2EFBE19F2EA12C63
:10E64000B12C8091C00087FD39C0012BA1F0279823
:10E650002F9884E690E00F94C8F100008091C000EC
:10E660008D7F8093C00081E180935700E895EE276D
:10E67000FF270994FFCF25E02A95F1F700003FEF2F
:10E68000C31AD30AE30AF30A81E041E2C4164EE456
:10E69000D406E104F10408F480E0082F10E0C7017B
:10E6A000B601A50194010F94C4FB672B682B692B5D
:10E6B00009F0C7CF85B1805885B9C3CF012B09F0C8
:10E6C000C6CFCF5CDE4F19821882C153D140312CA6
:10E6D000212CCA5DDE4F19821882C652D140C55D19
:10E6E000DE4F188219821A821B82CB52D140412CF4
:10E6F000512C320141E050E0C65DDE4F1882CA5213
:10E70000D140C12CFE013196C25EDE4FF983E88311
:10E71000CE51D140C25EDE4FF881CE51D140C45CB3
:10E72000DE4FF883CC53D140C15EDE4F2881CF51FC
:10E73000D140C35CDE4F2883CD53D140BE01655F1D
:10E740007F4FC05EDE4F79836883C052D14030E096
:10E7500020E080E048C5415051096109710971F418
:10E760006BBFFA01479156914F3F5F4F19F0EE276B
:10E77000FF27099441E052E16AE770E09091C00000
:10E7800097FFE9CF34C5123409F4F0C1153409F00C
:10E7900073C162E083E491EE0F94FEF140910402B4
:10E7A00050910502609106027091070281E00F947A
:10E7B00025F28091040290910502A0910602B09189
:10E7C00007029F5FAF4FBF4F8115E0E19E07A10594
:10E7D000B10508F09EC08093040290930502A093B7
:10E7E0000602B093070226C1123509F441C208F0AF
:10E7F00049C01C3409F4F7C1113509F41BC218349F
:10E8000009F03AC162E08FE291EE0F94FEF160E010
:10E8100087E791EE0F94FEF160E08BE691EE0F94A6
:10E82000FEF160E08DE591EE0F94FEF160E081E590
:10E8300091EE0F94FEF160E083E491EE0F94FEF10F
:10E8400060E086E391EE0F94FEF160E08FE291EEDE
:10E850000F94FEF160E08EE191EE0F94FEF160E026
:10E8600087E191EE0F94FEF160E08CE091EE0F9461
:10E87000FEF160E083EF90EE0F94FEF160E086EE33
:10E8800090EEFBC4163509F417C2193509F0F4C02F
:10E8900062E086EE90EE0F94FEF160E081ED91EE85
:10E8A0000F94D7F10F94C1F1182F1F75812F0F947A
:10E8B000B5F10F94EBF18FEB810F8A3108F07DC435
:10E8C000163409F41EC408F0B0C3133409F4F1C3BC
:10E8D00008F09DC3113409F4CCC3123409F4D9C330
:10E8E00060E08EEB91EEC9C462E087E791EE0F9491
:10E8F000FEF1109208021092090210920A02109280
:10E900000B0210920C0210920D0210920E02109245
:10E910000F02109204021092050210920602109249
:10E92000070288C062E08BE691EE0F94FEF160E092
:10E9300087EE92EE0F94FEF160E087EC92EE0F947A
:10E94000D7F160E084E392EE0F94FEF160E088EB93
:10E9500092EE0F94D7F160E088E093EE0F94FEF111
:10E9600060E089EA92EE0F94D7F186E30F94B5F157
:10E970000F94EBF160E08BE892EE0F94D7F160E03A
:10E9800087E292EE0F94FEF160E08AE992EE0F9436
:10E99000D7F160E08EE292EE0F94FEF160E08CE73A
:10E9A00092EE0F94D7F18EE10F940EF288E90F9456
:10E9B0000EF281E00F940EF20F94EBF160E08DE621
:10E9C00092EE0F94D7F129E0F0E0E0E020935700B9
:10E9D00084910F940EF20F94EBF160E08EE592EECD
:10E9E0000F94D7F129E0E3E0F0E020935700849101
:10E9F0000F940EF20F94EBF160E08FE492EE0F941F
:10EA0000D7F1E2E0F0E039E03093570084910F94C1
:10EA10000EF20F94EBF160E080E492EE0F94D7F1E8
:10EA2000E1E0F0E049E04093570084910F940EF24A
:10EA30000F94EBF160E08BED92EE0F94D7F10F9411
:10EA4000C1F1182F803608F01F751032A8F0812F01
:10EA50000F94B5F180E20F94B5F1163409F49FC01C
:10EA600008F0C2CE103461F008F08DCE103309F4F6
:10EA70003BCF1F3309F456CF60E086ED92EEFDC325
:10EA800062E08DE591EE0F94FEF160E08FE991EE8A
:10EA90000F94FEF10F94EBF110E000E0C8018951F2
:10EAA0009D41B0E0A0E0ABBFFC01F7905AE2F51643
:10EAB00021F0011562E0160789F50F94EBF10F9430
:10EAC000EBF160E084E991EE0F94FEF10F94EBF12D
:10EAD000F12CE12C10E000E0C80189519D41B0E02B
:10EAE000A0E0ABBFFC01D7908AE2D81621F0011557
:10EAF00092E0190729F50F94EBF10F94EBF160E028
:10EB000088E891EE0F94D7F161E070E0C7010F94AF
:10EB1000B4F20F94EBF10F94EBF1FBCE6F2DC80123
:10EB20000F9409FCF11008C060E08BEA91EE0F949D
:10EB3000D7F10F5F1F4FB2CF8F2D0F94B5F1F9CFE3
:10EB4000C8010F9401FCC82E81110DC060E08BEA52
:10EB500091EE0F94D7F1CD1419F07FEFE71AF70A71
:10EB60000F5F1F4FB9CF0F94B5F1F5CF62E081E58C
:10EB700091EE0F94FEF1279A2F9A8091C00087FFA3
:10EB800003C00F94C1F156CF2F9884E690E00F9404
:10EB9000C8F12F9A84E690E00F94C8F1EECF62E0BE
:10EBA00086E391EE0F94FEF1409108025091090224
:10EBB00060910A0270910B0280E00F9425F280911F
:10EBC000080290910902A0910A02B0910B029F5F86
:10EBD000AF4FBF4F8093080290930902A0930A029F
:10EBE000B0930B0227CF62E08EE191EE0F94FEF11D
:10EBF00081E40F94F1F182E40F94F1F183E40F9436
:10EC0000F1F184E40F94F1F185E40F94F1F186E4DD
:10EC10000F94F1F187E40F94F1F188E40F94F1F18E
:10EC20008AE40F94F1F18BE40F94F1F18CE40F94EA
:10EC3000F1F100CF62E087E191EE0F94FEF1DD2467
:10EC4000D3942981243109F428C508F085C32630DE
:10EC500009F4CBC408F070C3223009F479C323301F
:10EC600009F478C4213009F45FC480EC8A8371C34D
:10EC700062E08CE091EE0F94FEF140910C02509115
:10EC80000D0260910E0270910F0282E00F9425F246
:10EC900080910C0290910D02A0910E02B0910F0292
:10ECA0009F5FAF4FBF4F80930C0290930D02A093D4
:10ECB0000E02B0930F02BECE62E083EF90EE0F948F
:10ECC000FEF160E088E093EE0F94FEF160E082EFE9
:10ECD00091EE0F94FEF1C15DDE4F19821882CF5282
:10ECE000D140CE5DDE4F188219821A821B82C25239
:10ECF000D140CE5DDE4F288139814A815B81C2528D
:10ED0000D1405695479537952795CD5CDE4F2883A2
:10ED100039834A835B83C353D140C15DDE4F488151
:10ED20005981CF52D1404F5F5F4FC15DDE4F598354
:10ED30004883CF52D14062E070E0CA010F94B4F230
:10ED400080E20F94B5F18DE20F94B5F180E20F945B
:10ED5000B5F180E00F940EF2CD5CDE4F8881C35395
:10ED6000D1400F940EF280E20F94B5F18DE30F9431
:10ED7000B5F180E20F94B5F1CE5DDE4F6881798107
:10ED80008A819B81C252D1408BBFFB017791C55CC8
:10ED9000DE4F7883CB53D140872E912CB12CA12C00
:10EDA000CE5DDE4F88819981AA81BB81C252D1405C
:10EDB0000196A11DB11DABBFFC018791282F30E04A
:10EDC00050E040E0C95CDE4F288339834A835B838F
:10EDD000C753D140CE5DDE4F088119812A813B8126
:10EDE000C252D1400E5F1F4F2F4F3F4F2BBFF80134
:10EDF0000791CE5DDE4F488159816A817B81C25285
:10EE0000D1404D5F5F4F6F4F7F4F6BBFFA0117913E
:10EE1000CE5DDE4F488159816A817B81C252D140EB
:10EE20004C5F5F4F6F4F7F4FCE5DDE4F48835983FE
:10EE30006A837B83C252D140C95CDE4F288139810D
:10EE40004A815B81C753D140CC24D22EE32EF42ECD
:10EE5000C80CD91CEA1CFB1C0F940EF280E20F9424
:10EE6000B5F1C55CDE4F8881CB53D1400F940EF2D3
:10EE700080E20F94B5F1812F0F940EF280E20F948F
:10EE8000B5F1802F0F940EF280E20F94B5F13FEFB1
:10EE9000C316D306E104F10489F460E088EE91EE34
:10EEA0000F94D7F10F94EBF1C15DDE4FA881B981CA
:10EEB000CF52D140D99709F01CCFBCCDD701C601A4
:10EEC0008827907CAA27BB278115904CA105B10506
:10EED00079F55FE3D522EE24FF24CD5CDE4F8880F8
:10EEE0009980AA80BB80C353D1408C0C9D1CAE1C62
:10EEF000BF1C880C991CAA1CBB1C60E081EE91EE23
:10EF00000F94D7F18D2D0F940EF28C2D0F940EF2DD
:10EF100080E20F94B5F18EE30F94B5F180E00F9489
:10EF20000EF2892D0F940EF2882D0F940EF2BACFA7
:10EF30006EE0C622E894D0F8EE24FF247CE0C716E9
:10EF400074E9D706E104F10409F0ACCFB401552708
:10EF500044274427552761707727F1E1880C991CD5
:10EF6000AA1CBB1CFA95D1F78824992480EEA8220C
:10EF700081E0B822842A952AA62AB72A812F90E018
:10EF8000B0E0A0E0BA2FA92F982F8827800F911DFD
:10EF9000A11DB11DC95CDE4F488159816A817B8109
:10EFA000C753D14005E1440F551F661F771F0A95CF
:10EFB000D1F74427552760727727840F951FA61F26
:10EFC000B71F880E991EAA1EBB1E75016401CC0CCA
:10EFD000DD1CEE1CFF1C60E08CED91EE0F94D7F170
:10EFE0008A2D0F940EF2892D0F940EF2882D0F9416
:10EFF0000EF280E20F94B5F18EE30F94B5F18E2DF1
:10F000000F940EF28D2D0F940EF28C2D8ECF1434A2
:10F0100009F45FC0153409F063CC3FEF3DB980912E
:10F02000C00087FF66C01EB8ACCD1A3409F493C087
:10F0300080F4173409F475C0183409F051CC6FEF1F
:10F04000609301018091C00087FF7BC01092020194
:10F0500098CD1B3409F493C01C3409F041CC9FEFC8
:10F0600090930A018091C00087FF9DC010920B0110
:10F0700088CDBFEFB1B98091C00087FF02C012B840
:10F0800080CD82B1809582B988EC90E00F94C8F170
:10F09000F2CFEFEFE4B98091C00087FF02C015B84E
:10F0A00070CD85B1809585B988EC90E00F94C8F15A
:10F0B000F2CFFFEFF7B98091C00087FF02C018B808
:10F0C00060CD88B1809588B988EC90E00F94C8F144
:10F0D000F2CF2FEF2AB98091C00087FF02C01BB882
:10F0E00050CD8BB180958BB988EC90E00F94C8F12E
:10F0F000F2CF8EB180958EB988EC90E00F94C8F174
:10F100008ECF4FEF40BB8091C00087FF02C011BA85
:10F1100038CD81B3809581BB88EC90E00F94C8F125
:10F12000F2CF5FEF53BB8091C00087FF02C014BADB
:10F1300028CD84B3809584BB88EC90E00F94C8F10F
:10F14000F2CF8091020180958093020188EC90E0DB
:10F150000F94C8F177CF7FEF709304018091C000C6
:10F1600087FF03C0109205010CCD809105018095A9
:10F170008093050188EC90E00F94C8F1EFCF8FEFFA
:10F18000809307018091C00087FF03C0109208019F
:10F19000F8CC8091080180958093080188EC90E07C
:10F1A0000F94C8F1EFCF80910B01809580930B01F4
:10F1B00088EC90E00F94C8F155CF60E08DEA91EEB5
:10F1C0005CC0312C212C833009F47CC008F058C07D
:10F1D000813009F468C0823009F46DC0882309F4D5
:10F1E0005BC040E050E04130510509F0C3CA909146
:10F1F000C600CF5CDE4FA881B981C153D1401196C2
:10F20000CF5CDE4FB983A883C153D1409132C9F698
:10F210001A97B8F6BFEF2B1A3B0AE3E02E1631041B
:10F2200091F6E5E02E2E312C09E110E081E20F94F9
:10F23000B5F101501109D1F70F94EBF1F1E02F1A5C
:10F24000310891F710920C0210920D0210920E02EA
:10F2500010920F02109208021092090210920A02F4
:10F2600010920B02109204021092050210920602F4
:10F270001092070260E087EE92EE0F94FEF1DACB77
:10F28000853099F1863009F452C08430F9F0873026
:10F2900009F0A7CFD12CD5CC9B3109F0A2CF8BE1BF
:10F2A000C82E81E09ECFC926C65DDE4F9883CA5224
:10F2B000D14082E096CF292F30E0322F2227C92675
:10F2C00083E08FCF292BC92684E08BCF9E3091F528
:10F2D000C926CA5DDE4F1882C652D140C95DDE4FD5
:10F2E0001882C752D14085E07CCFCA5DDE4F48818D
:10F2F0005981C652D1404F5F5F4FE1E0F0E0EC0F23
:10F30000FD1FCA5DDE4FA881B981C652D140EA0F08
:10F31000FB1F9083C9264217530709F01AC2CA5D22
:10F32000DE4F39832883C652D14086E05ACF9C15E0
:10F3300009F4B0CF80E055CF223109F449C123311F
:10F34000C9F0203129F0213109F08FCCDD24D3948C
:10F350001A8202E010E08AC0293109F42AC108F0BB
:10F360005DC0263109F499C1283109F40DC1253158
:10F3700009F07BCC0A811B8110270127102723313C
:10F3800009F05CC1C55DDE4F488159816A817B818E
:10F39000CB52D140411580EC580783E068077105D6
:10F3A000E8F483E0FA0160935B0080935700E895EE
:10F3B00007B600FCFDCFC55DDE4F288139814A814B
:10F3C0005B81CB52D1403F5F4F4F5F4FC55DDE4FFA
:10F3D000288339834A835B83CB52D1408B85DE01FE
:10F3E0001196B301A20121E01B969C911B970C0181
:10F3F000FA0160935B0020935700E89511244E5F5B
:10F400005F4F6F4F7F4F0250110912960115110582
:10F4100009F402C11A968C911A97E6CF2B3109F4A0
:10F42000A7C02D3179F02A3109F01FCC1A8289E06A
:10F43000E1E0F0E08093570084918B831C8204E02C
:10F4400010E014C09D81903309F056C08F8188234D
:10F4500009F466C0813009F465C081E01A821B821C
:10F460009C831D828E831F8207E010E08BE10F9446
:10F47000B5F1C65DDE4F8881CA52D1400F94B5F117
:10F48000812F0F94B5F1C65DDE4FC880CA52D140BE
:10F49000C126802F0F94B5F1C0268EE00F94B5F1F0
:10F4A00085E1C826E1E0F0E0EC0FFD1F0E0F1F1F05
:10F4B000C45CDE4FE880CC53D140C35CDE4FF880A3
:10F4C000CD53D140E016F10609F03BC18C2D0F94CD
:10F4D000B5F1C65DDE4FB881CA52D140BF5FC65D8F
:10F4E000DE4FB883CA52D14085B1805885B9D1105A
:10F4F000AEC850E040E02BC9892F807509F4AECF2B
:10F5000089E0F0E0E0E0903539F080E0983509F0EE
:10F51000A5CF89E0E3E0F0E08093570084919ECF8F
:10F520008EE19CCF88E99ACF1A8288E08B8381E4B0
:10F530008C8386E58D8382E58E8389E48F8383E5E2
:10F54000888780E589878FE58A8782E38B870BE050
:10F5500010E08CCFEA81E05980E0E33020F4F0E065
:10F56000E050FE4F80811A828B8303E010E07ECF53
:10F570008D81882329F0813029F081E01A825DCFC6
:10F580008EE1FCCF88E9FACF8B81803571F48C81D4
:10F59000883039F489E0E2E0F0E08093570084910C
:10F5A000EDCF89E0F0E0E0E0F8CF89E0E3E0F0E0E3
:10F5B000F4CF8D81836C99E0E1E0F0E0082E909328
:10F5C0005700E89507B600FCFDCF1A821B82CDCF0D
:10F5D00080EC8A8302E010E0C55DDE4F188219825C
:10F5E0001A821B82CB52D14041CF2A813B814C8170
:10F5F0005D81CE5DDE4F288339834A835B83C252AF
:10F60000D140CA01B9010F94E6FB2B013C01440C27
:10F61000551C661C771C9CCE35E0F20160925B00A5
:10F6200030935700E89507B600FCFDCF81E1809349
:10F630005700E8951A822A013B018BCED301C20103
:10F64000B695A795979587954C015801A80EB91EB8
:10F65000C05EDE4F8881C052D140CF5DDE4F9881C1
:10F66000C152D1408A149B0469F430E020E0000FBD
:10F67000111F221F331FB901A801440D551D661D1E
:10F68000771DD8CFDC016D917D01C4010F9409FC79
:10F69000BFEF8B1A9B0AC701E5CF8A819B81982710
:10F6A000892798278C010D5F1F4F1A822431D9F4C6
:10F6B000DE0111966BBEF2012791369112962C93C2
:10F6C0001297AD014C5F5F4F13963C931397E2E0A6
:10F6D0004E0E511C611C711C02971296009751F737
:10F6E000DA011C92C3CEB301A201769567955795B6
:10F6F00047959A01BC01640F751FFE013396AF0157
:10F7000021BD32BD2F5F3F4FF89AF0B4F0823196A1
:10F7100062177307A9F74C01F1E08F1A9108B12C19
:10F72000A12C2FEF821A920AA20AB20A880C991C05
:10F73000AA1CBB1C480C591C6A1C7B1C480F591F77
:10F74000CFCFD701BD907D018B2D0F94B5F1CB2488
:10F75000B9CECA5DDE4F59834883C652D14041CDF0
:10F7600097FB072E16F4009407D077FD09D00F946D
:10F77000EDFB07FC05D03EF4909581959F4F0895D1
:10F78000709561957F4F0895A1E21A2EAA1BBB1BAD
:10F79000FD010DC0AA1FBB1FEE1FFF1FA217B3075D
:10F7A000E407F50720F0A21BB30BE40BF50B661F73
:10F7B000771F881F991F1A9469F760957095809537
:10F7C00090959B01AC01BD01CF0108956927962753
:10F7D00069277827872778270895AA1BBB1B51E143
:10F7E00007C0AA1FBB1FA617B70710F0A61BB70BB1
:10F7F000881F991F5A95A9F780959095BC01CD0156
:10F800000895F999FECF92BD81BDF89A992780B5E8
:10F810000895262FF999FECF1FBA92BD81BD20BD54
:10F820000FB6F894FA9AF99A0FBE01960895F894D3
:02F83000FFCF08
:04F832000F020A00B7
:040000033000E000E9
:00000001FF
